{
  "contractName": "Patient",
  "abi": [
    {
      "inputs": [
        {
          "internalType": "uint256",
          "name": "_key",
          "type": "uint256"
        },
        {
          "internalType": "string",
          "name": "_name",
          "type": "string"
        },
        {
          "internalType": "uint256",
          "name": "_phone",
          "type": "uint256"
        },
        {
          "internalType": "string",
          "name": "_gender",
          "type": "string"
        }
      ],
      "stateMutability": "nonpayable",
      "type": "constructor"
    },
    {
      "anonymous": false,
      "inputs": [
        {
          "indexed": true,
          "internalType": "address",
          "name": "user",
          "type": "address"
        }
      ],
      "name": "UserAuthorized",
      "type": "event"
    },
    {
      "anonymous": false,
      "inputs": [
        {
          "indexed": true,
          "internalType": "address",
          "name": "user",
          "type": "address"
        }
      ],
      "name": "UserLoggedOut",
      "type": "event"
    },
    {
      "inputs": [],
      "name": "gender",
      "outputs": [
        {
          "internalType": "string",
          "name": "",
          "type": "string"
        }
      ],
      "stateMutability": "view",
      "type": "function"
    },
    {
      "inputs": [],
      "name": "key",
      "outputs": [
        {
          "internalType": "uint256",
          "name": "",
          "type": "uint256"
        }
      ],
      "stateMutability": "view",
      "type": "function"
    },
    {
      "inputs": [],
      "name": "name",
      "outputs": [
        {
          "internalType": "string",
          "name": "",
          "type": "string"
        }
      ],
      "stateMutability": "view",
      "type": "function"
    },
    {
      "inputs": [],
      "name": "phone",
      "outputs": [
        {
          "internalType": "uint256",
          "name": "",
          "type": "uint256"
        }
      ],
      "stateMutability": "view",
      "type": "function"
    },
    {
      "inputs": [
        {
          "internalType": "uint256",
          "name": "_pass",
          "type": "uint256"
        }
      ],
      "name": "authorizeUser",
      "outputs": [],
      "stateMutability": "nonpayable",
      "type": "function"
    },
    {
      "inputs": [],
      "name": "logoutUser",
      "outputs": [],
      "stateMutability": "nonpayable",
      "type": "function"
    },
    {
      "inputs": [
        {
          "internalType": "address",
          "name": "_addr",
          "type": "address"
        }
      ],
      "name": "checkUser",
      "outputs": [
        {
          "internalType": "bool",
          "name": "",
          "type": "bool"
        }
      ],
      "stateMutability": "view",
      "type": "function"
    }
  ],
  "bytecode": "0x60806040523480156200001157600080fd5b5060405162000e9838038062000e98833981810160405281019062000037919062000241565b8360008190555082600190816200004f919062000538565b5081600281905550806003908162000068919062000538565b50505050506200061f565b6000604051905090565b600080fd5b600080fd5b6000819050919050565b6200009c8162000087565b8114620000a857600080fd5b50565b600081519050620000bc8162000091565b92915050565b600080fd5b600080fd5b6000601f19601f8301169050919050565b7f4e487b7100000000000000000000000000000000000000000000000000000000600052604160045260246000fd5b6200011782620000cc565b810181811067ffffffffffffffff82111715620001395762000138620000dd565b5b80604052505050565b60006200014e62000073565b90506200015c82826200010c565b919050565b600067ffffffffffffffff8211156200017f576200017e620000dd565b5b6200018a82620000cc565b9050602081019050919050565b60005b83811015620001b75780820151818401526020810190506200019a565b60008484015250505050565b6000620001da620001d48462000161565b62000142565b905082815260208101848484011115620001f957620001f8620000c7565b5b6200020684828562000197565b509392505050565b600082601f830112620002265762000225620000c2565b5b815162000238848260208601620001c3565b91505092915050565b600080600080608085870312156200025e576200025d6200007d565b5b60006200026e87828801620000ab565b945050602085015167ffffffffffffffff81111562000292576200029162000082565b5b620002a0878288016200020e565b9350506040620002b387828801620000ab565b925050606085015167ffffffffffffffff811115620002d757620002d662000082565b5b620002e5878288016200020e565b91505092959194509250565b600081519050919050565b7f4e487b7100000000000000000000000000000000000000000000000000000000600052602260045260246000fd5b600060028204905060018216806200034457607f821691505b6020821081036200035a5762000359620002fc565b5b50919050565b60008190508160005260206000209050919050565b60006020601f8301049050919050565b60008160020a8302905092915050565b600060088302620003c77fffffffffffffffffffffffffffffffffffffffffffffffffffffffffffffffff8262000385565b620003d3868362000385565b95508019841693508086168417925050509392505050565b6000819050919050565b600062000416620004106200040a8462000087565b620003eb565b62000087565b9050919050565b6000819050919050565b6200043283620003f5565b6200044a62000441826200041d565b84845462000395565b825550505050565b600090565b6200046162000452565b6200046e81848462000427565b505050565b5b8181101562000496576200048a60008262000457565b60018101905062000474565b5050565b601f821115620004e557620004af8162000360565b620004ba8462000375565b81016020851015620004ca578190505b620004e2620004d98562000375565b83018262000473565b50505b505050565b60008160020a8304905092915050565b60006200050d60001984600802620004ea565b1980831691505092915050565b6000620005288383620004fa565b9150826002028217905092915050565b6200054382620002f1565b67ffffffffffffffff8111156200055f576200055e620000dd565b5b6200056b82546200032b565b620005788282856200049a565b600060209050601f831160018114620005b057600084156200059b578287015190505b620005a785826200051a565b86555062000617565b601f198416620005c08662000360565b60005b82811015620005ea57848901518255600182019150602085019450602081019050620005c3565b868310156200060a578489015162000606601f891682620004fa565b8355505b6001600288020188555050505b505050505050565b610869806200062f6000396000f3fe608060405234801561001057600080fd5b506004361061009a576000357c01000000000000000000000000000000000000000000000000000000009004806361fbba081161007857806361fbba081461010b57806379caad86146101275780639284f49714610145578063d8f145d2146101635761009a565b806306fdde031461009f5780631e9d48cf146100bd5780633943380c146100ed575b600080fd5b6100a761016d565b6040516100b49190610586565b60405180910390f35b6100d760048036038101906100d2919061060b565b6101fb565b6040516100e49190610653565b60405180910390f35b6100f5610251565b6040516101029190610687565b60405180910390f35b610125600480360381019061012091906106ce565b610257565b005b61012f610339565b60405161013c9190610586565b60405180910390f35b61014d6103c7565b60405161015a9190610687565b60405180910390f35b61016b6103cd565b005b6001805461017a9061072a565b80601f01602080910402602001604051908101604052809291908181526020018280546101a69061072a565b80156101f35780601f106101c8576101008083540402835291602001916101f3565b820191906000526020600020905b8154815290600101906020018083116101d657829003601f168201915b505050505081565b6000600460008373ffffffffffffffffffffffffffffffffffffffff1673ffffffffffffffffffffffffffffffffffffffff16815260200190815260200160002060009054906101000a900460ff169050919050565b60005481565b600054811461029b576040517f08c379a0000000000000000000000000000000000000000000000000000000008152600401610292906107a7565b60405180910390fd5b6001600460003373ffffffffffffffffffffffffffffffffffffffff1673ffffffffffffffffffffffffffffffffffffffff16815260200190815260200160002060006101000a81548160ff0219169083151502179055503373ffffffffffffffffffffffffffffffffffffffff167fb0be505cf6e26533f3066ac7722c3f8a5e8a123f43187c7832d333c49603b14660405160405180910390a250565b600380546103469061072a565b80601f01602080910402602001604051908101604052809291908181526020018280546103729061072a565b80156103bf5780601f10610394576101008083540402835291602001916103bf565b820191906000526020600020905b8154815290600101906020018083116103a257829003601f168201915b505050505081565b60025481565b600460003373ffffffffffffffffffffffffffffffffffffffff1673ffffffffffffffffffffffffffffffffffffffff16815260200190815260200160002060009054906101000a900460ff16610459576040517f08c379a000000000000000000000000000000000000000000000000000000000815260040161045090610813565b60405180910390fd5b6000600460003373ffffffffffffffffffffffffffffffffffffffff1673ffffffffffffffffffffffffffffffffffffffff16815260200190815260200160002060006101000a81548160ff0219169083151502179055503373ffffffffffffffffffffffffffffffffffffffff167fc6ef449222bae3754898fc5fa944d52dfc53c0ee1fdd7d733fbb422ac5e2b8c860405160405180910390a2565b600081519050919050565b600082825260208201905092915050565b60005b83811015610530578082015181840152602081019050610515565b60008484015250505050565b6000601f19601f8301169050919050565b6000610558826104f6565b6105628185610501565b9350610572818560208601610512565b61057b8161053c565b840191505092915050565b600060208201905081810360008301526105a0818461054d565b905092915050565b600080fd5b600073ffffffffffffffffffffffffffffffffffffffff82169050919050565b60006105d8826105ad565b9050919050565b6105e8816105cd565b81146105f357600080fd5b50565b600081359050610605816105df565b92915050565b600060208284031215610621576106206105a8565b5b600061062f848285016105f6565b91505092915050565b60008115159050919050565b61064d81610638565b82525050565b60006020820190506106686000830184610644565b92915050565b6000819050919050565b6106818161066e565b82525050565b600060208201905061069c6000830184610678565b92915050565b6106ab8161066e565b81146106b657600080fd5b50565b6000813590506106c8816106a2565b92915050565b6000602082840312156106e4576106e36105a8565b5b60006106f2848285016106b9565b91505092915050565b7f4e487b7100000000000000000000000000000000000000000000000000000000600052602260045260246000fd5b6000600282049050600182168061074257607f821691505b602082108103610755576107546106fb565b5b50919050565b7f496e636f72726563742070617373776f72640000000000000000000000000000600082015250565b6000610791601283610501565b915061079c8261075b565b602082019050919050565b600060208201905081810360008301526107c081610784565b9050919050565b7f55736572206e6f7420617574686f72697a656400000000000000000000000000600082015250565b60006107fd601383610501565b9150610808826107c7565b602082019050919050565b6000602082019050818103600083015261082c816107f0565b905091905056fea26469706673582212204f3787e4c6cefd354c0a73de0e2f3c2762e0974ef5d9eb098fea171d5e4c80c364736f6c63430008150033",
  "immutableReferences": {},
  "source": "// SPDX-License-Identifier: MIT\r\npragma solidity 0.8.21;\r\n\r\ncontract Patient {\r\n    uint public key;\r\n    string public name;\r\n    uint public phone;\r\n    string public gender;\r\n\r\n    \r\n    constructor(uint _key,string memory _name,uint _phone,string memory _gender) {\r\n        key = _key;\r\n        name = _name;\r\n        phone = _phone;\r\n        gender = _gender;\r\n    }\r\n    mapping (address => bool) private isAllowed;\r\n    \r\n    event UserAuthorized(address indexed user);\r\n    event UserLoggedOut(address indexed user);\r\n\r\n    function authorizeUser(uint _pass) public {\r\n        require(_pass == key, \"Incorrect password\");\r\n        isAllowed[msg.sender] = true;\r\n        emit UserAuthorized(msg.sender);\r\n    }\r\n\r\n    function logoutUser() public {\r\n        require(isAllowed[msg.sender], \"User not authorized\");\r\n        isAllowed[msg.sender] = false;\r\n        emit UserLoggedOut(msg.sender);\r\n    }\r\n\r\n    function checkUser(address _addr) public view returns(bool) {\r\n        return isAllowed[_addr];\r\n    }\r\n}\r\n// contract SimpleContract {\r\n    // string public message; // State variable to store the argument\r\n    \r\n    // constructor(string memory _message) {\r\n    //     message = _message; // Storing the argument in the state variable\r\n    // }\r\n    \r\n//     function setMessage(string memory _message) public {\r\n//         message = _message;\r\n//     }\r\n    \r\n//     function getMessage() public view returns (string memory) {\r\n//         return message;\r\n//     }\r\n// }",
  "sourcePath": "D:\\Mito\\api\\contracts\\contracts\\Patient.sol",
  "compiler": {
    "name": "solc",
    "version": "0.8.21+commit.d9974bed.Emscripten.clang"
  },
  "schemaVersion": "3.4.16",
  "updatedAt": "2025-04-18T22:12:18.827Z",
  "devdoc": {
    "kind": "dev",
    "methods": {},
    "version": 1
  },
  "userdoc": {
    "kind": "user",
    "methods": {},
    "version": 1
  }
}