{
  "contractName": "Medical",
  "abi": [
    {
      "inputs": [],
      "payable": false,
      "stateMutability": "nonpayable",
      "type": "constructor"
    },
    {
      "anonymous": false,
      "inputs": [
        {
          "indexed": true,
          "internalType": "bytes32",
          "name": "docId",
          "type": "bytes32"
        }
      ],
      "name": "DocumentDeactivated",
      "type": "event"
    },
    {
      "anonymous": false,
      "inputs": [
        {
          "indexed": true,
          "internalType": "bytes32",
          "name": "docId",
          "type": "bytes32"
        },
        {
          "indexed": false,
          "internalType": "string",
          "name": "newIpfsHash",
          "type": "string"
        }
      ],
      "name": "DocumentUpdated",
      "type": "event"
    },
    {
      "anonymous": false,
      "inputs": [
        {
          "indexed": true,
          "internalType": "bytes32",
          "name": "docId",
          "type": "bytes32"
        },
        {
          "indexed": false,
          "internalType": "string",
          "name": "ipfsHash",
          "type": "string"
        },
        {
          "indexed": false,
          "internalType": "string",
          "name": "documentType",
          "type": "string"
        },
        {
          "indexed": true,
          "internalType": "address",
          "name": "uploadedBy",
          "type": "address"
        }
      ],
      "name": "DocumentUploaded",
      "type": "event"
    },
    {
      "constant": true,
      "inputs": [],
      "name": "owner",
      "outputs": [
        {
          "internalType": "address",
          "name": "",
          "type": "address"
        }
      ],
      "payable": false,
      "stateMutability": "view",
      "type": "function"
    },
    {
      "constant": false,
      "inputs": [
        {
          "internalType": "bytes32",
          "name": "uniqueId",
          "type": "bytes32"
        },
        {
          "internalType": "string",
          "name": "ipfsHash",
          "type": "string"
        },
        {
          "internalType": "string",
          "name": "documentType",
          "type": "string"
        }
      ],
      "name": "uploadDocument",
      "outputs": [],
      "payable": false,
      "stateMutability": "nonpayable",
      "type": "function"
    },
    {
      "constant": false,
      "inputs": [
        {
          "internalType": "bytes32",
          "name": "docId",
          "type": "bytes32"
        },
        {
          "internalType": "string",
          "name": "newIpfsHash",
          "type": "string"
        }
      ],
      "name": "updateDocument",
      "outputs": [],
      "payable": false,
      "stateMutability": "nonpayable",
      "type": "function"
    },
    {
      "constant": true,
      "inputs": [
        {
          "internalType": "bytes32",
          "name": "docId",
          "type": "bytes32"
        }
      ],
      "name": "getDocument",
      "outputs": [
        {
          "internalType": "string",
          "name": "ipfsHash",
          "type": "string"
        },
        {
          "internalType": "string",
          "name": "documentType",
          "type": "string"
        },
        {
          "internalType": "uint256",
          "name": "timestamp",
          "type": "uint256"
        },
        {
          "internalType": "address",
          "name": "uploadedBy",
          "type": "address"
        },
        {
          "internalType": "bool",
          "name": "isActive",
          "type": "bool"
        }
      ],
      "payable": false,
      "stateMutability": "view",
      "type": "function"
    },
    {
      "constant": true,
      "inputs": [],
      "name": "getDocumentCount",
      "outputs": [
        {
          "internalType": "uint256",
          "name": "",
          "type": "uint256"
        }
      ],
      "payable": false,
      "stateMutability": "view",
      "type": "function"
    },
    {
      "constant": false,
      "inputs": [
        {
          "internalType": "bytes32",
          "name": "docId",
          "type": "bytes32"
        }
      ],
      "name": "deactivateDocument",
      "outputs": [],
      "payable": false,
      "stateMutability": "nonpayable",
      "type": "function"
    },
    {
      "constant": true,
      "inputs": [
        {
          "internalType": "string",
          "name": "input",
          "type": "string"
        }
      ],
      "name": "generateId",
      "outputs": [
        {
          "internalType": "bytes32",
          "name": "",
          "type": "bytes32"
        }
      ],
      "payable": false,
      "stateMutability": "pure",
      "type": "function"
    }
  ],
  "bytecode": "0x608060405234801561001057600080fd5b5033600260006101000a81548173ffffffffffffffffffffffffffffffffffffffff021916908373ffffffffffffffffffffffffffffffffffffffff160217905550611173806100616000396000f3fe608060405234801561001057600080fd5b506004361061007d5760003560e01c80634b15dcce1161005b5780634b15dcce146102055780638da5cb5b14610288578063b10d6b41146102d2578063b55555af1461042a5761007d565b806319a9c2f114610082578063300f10001461010f5780633d1c2273146101e7575b600080fd5b6100f96004803603602081101561009857600080fd5b81019080803590602001906401000000008111156100b557600080fd5b8201836020820111156100c757600080fd5b803590602001918460018302840111640100000000831117156100e957600080fd5b9091929391929390505050610458565b6040518082815260200191505060405180910390f35b6101e56004803603606081101561012557600080fd5b81019080803590602001909291908035906020019064010000000081111561014c57600080fd5b82018360208201111561015e57600080fd5b8035906020019184600183028401116401000000008311171561018057600080fd5b9091929391929390803590602001906401000000008111156101a157600080fd5b8201836020820111156101b357600080fd5b803590602001918460018302840111640100000000831117156101d557600080fd5b9091929391929390505050610492565b005b6101ef610800565b6040518082815260200191505060405180910390f35b6102866004803603604081101561021b57600080fd5b81019080803590602001909291908035906020019064010000000081111561024257600080fd5b82018360208201111561025457600080fd5b8035906020019184600183028401116401000000008311171561027657600080fd5b909192939192939050505061080d565b005b610290610ae8565b604051808273ffffffffffffffffffffffffffffffffffffffff1673ffffffffffffffffffffffffffffffffffffffff16815260200191505060405180910390f35b6102fe600480360360208110156102e857600080fd5b8101908080359060200190929190505050610b0e565b6040518080602001806020018681526020018573ffffffffffffffffffffffffffffffffffffffff1673ffffffffffffffffffffffffffffffffffffffff16815260200184151515158152602001838103835288818151815260200191508051906020019080838360005b83811015610384578082015181840152602081019050610369565b50505050905090810190601f1680156103b15780820380516001836020036101000a031916815260200191505b50838103825287818151815260200191508051906020019080838360005b838110156103ea5780820151818401526020810190506103cf565b50505050905090810190601f1680156104175780820380516001836020036101000a031916815260200191505b5097505050505050505060405180910390f35b6104566004803603602081101561044057600080fd5b8101908080359060200190929190505050610dba565b005b6000828260405160200180838380828437808301925050509250505060405160208183030381529060405280519060200120905092915050565b6000848490501161050b576040517f08c379a00000000000000000000000000000000000000000000000000000000081526004018080602001828103825260198152602001807f4950465320686173682063616e6e6f7420626520656d7074790000000000000081525060200191505060405180910390fd5b60008060008781526020019081526020016000206002015414610596576040517f08c379a000000000000000000000000000000000000000000000000000000000815260040180806020018281038252601a8152602001807f446f63756d656e7420494420616c72656164792065786973747300000000000081525060200191505060405180910390fd5b6040518060a0016040528085858080601f016020809104026020016040519081016040528093929190818152602001838380828437600081840152601f19601f82011690508083019250505050505050815260200183838080601f016020809104026020016040519081016040528093929190818152602001838380828437600081840152601f19601f8201169050808301925050505050505081526020014281526020013373ffffffffffffffffffffffffffffffffffffffff16815260200160011515815250600080878152602001908152602001600020600082015181600001908051906020019061068c929190610fd2565b5060208201518160010190805190602001906106a9929190610fd2565b506040820151816002015560608201518160030160006101000a81548173ffffffffffffffffffffffffffffffffffffffff021916908373ffffffffffffffffffffffffffffffffffffffff16021790555060808201518160030160146101000a81548160ff02191690831515021790555090505060018590806001815401808255809150509060018203906000526020600020016000909192909190915055503373ffffffffffffffffffffffffffffffffffffffff16857f98b118fcf8a8de986db271ac20c3b5fce69c52a16d4943314f40a7bb775606fd868686866040518080602001806020018381038352878782818152602001925080828437600081840152601f19601f8201169050808301925050508381038252858582818152602001925080828437600081840152601f19601f820116905080830192505050965050505050505060405180910390a35050505050565b6000600180549050905090565b60008282905011610886576040517f08c379a00000000000000000000000000000000000000000000000000000000081526004018080602001828103825260198152602001807f4950465320686173682063616e6e6f7420626520656d7074790000000000000081525060200191505060405180910390fd5b6000806000858152602001908152602001600020600201541415610912576040517f08c379a00000000000000000000000000000000000000000000000000000000081526004018080602001828103825260178152602001807f446f63756d656e7420646f6573206e6f7420657869737400000000000000000081525060200191505060405180910390fd5b3373ffffffffffffffffffffffffffffffffffffffff1660008085815260200190815260200160002060030160009054906101000a900473ffffffffffffffffffffffffffffffffffffffff1673ffffffffffffffffffffffffffffffffffffffff1614806109ce5750600260009054906101000a900473ffffffffffffffffffffffffffffffffffffffff1673ffffffffffffffffffffffffffffffffffffffff163373ffffffffffffffffffffffffffffffffffffffff16145b610a40576040517f08c379a00000000000000000000000000000000000000000000000000000000081526004018080602001828103825260188152602001807f4e6f7420617574686f72697a656420746f20757064617465000000000000000081525060200191505060405180910390fd5b81816000808681526020019081526020016000206000019190610a64929190611052565b504260008085815260200190815260200160002060020181905550827f55bfbf9160b0ed8e61b497b7d34a9c6e369413a3472e1507298c9dfdb2f619f0838360405180806020018281038252848482818152602001925080828437600081840152601f19601f820116905080830192505050935050505060405180910390a2505050565b600260009054906101000a900473ffffffffffffffffffffffffffffffffffffffff1681565b606080600080600080600080888152602001908152602001600020600201541415610ba1576040517f08c379a00000000000000000000000000000000000000000000000000000000081526004018080602001828103825260178152602001807f446f63756d656e7420646f6573206e6f7420657869737400000000000000000081525060200191505060405180910390fd5b610ba96110d2565b6000808881526020019081526020016000206040518060a0016040529081600082018054600181600116156101000203166002900480601f016020809104026020016040519081016040528092919081815260200182805460018160011615610100020316600290048015610c5f5780601f10610c3457610100808354040283529160200191610c5f565b820191906000526020600020905b815481529060010190602001808311610c4257829003601f168201915b50505050508152602001600182018054600181600116156101000203166002900480601f016020809104026020016040519081016040528092919081815260200182805460018160011615610100020316600290048015610d015780601f10610cd657610100808354040283529160200191610d01565b820191906000526020600020905b815481529060010190602001808311610ce457829003601f168201915b50505050508152602001600282015481526020016003820160009054906101000a900473ffffffffffffffffffffffffffffffffffffffff1673ffffffffffffffffffffffffffffffffffffffff1673ffffffffffffffffffffffffffffffffffffffff1681526020016003820160149054906101000a900460ff161515151581525050905080600001518160200151826040015183606001518460800151849450839350955095509550955095505091939590929450565b6000806000838152602001908152602001600020600201541415610e46576040517f08c379a00000000000000000000000000000000000000000000000000000000081526004018080602001828103825260178152602001807f446f63756d656e7420646f6573206e6f7420657869737400000000000000000081525060200191505060405180910390fd5b3373ffffffffffffffffffffffffffffffffffffffff1660008083815260200190815260200160002060030160009054906101000a900473ffffffffffffffffffffffffffffffffffffffff1673ffffffffffffffffffffffffffffffffffffffff161480610f025750600260009054906101000a900473ffffffffffffffffffffffffffffffffffffffff1673ffffffffffffffffffffffffffffffffffffffff163373ffffffffffffffffffffffffffffffffffffffff16145b610f74576040517f08c379a000000000000000000000000000000000000000000000000000000000815260040180806020018281038252600e8152602001807f4e6f7420617574686f72697a656400000000000000000000000000000000000081525060200191505060405180910390fd5b600080600083815260200190815260200160002060030160146101000a81548160ff021916908315150217905550807fa4af2e42edd850cac3b007262a20182363ab0088b7418163cb38cc8a4ed8d61060405160405180910390a250565b828054600181600116156101000203166002900490600052602060002090601f016020900481019282601f1061101357805160ff1916838001178555611041565b82800160010185558215611041579182015b82811115611040578251825591602001919060010190611025565b5b50905061104e9190611119565b5090565b828054600181600116156101000203166002900490600052602060002090601f016020900481019282601f1061109357803560ff19168380011785556110c1565b828001600101855582156110c1579182015b828111156110c05782358255916020019190600101906110a5565b5b5090506110ce9190611119565b5090565b6040518060a00160405280606081526020016060815260200160008152602001600073ffffffffffffffffffffffffffffffffffffffff1681526020016000151581525090565b61113b91905b8082111561113757600081600090555060010161111f565b5090565b9056fea265627a7a723158203299aa22c722475b2fcaa6e149f4e4c6405bff0292ba7b22cb9d045f826cf44364736f6c63430005100032",
  "source": "// SPDX-License-Identifier: MIT\r\npragma solidity ^0.5.16;\r\n\r\ncontract Medical {\r\n    // Struct to hold document metadata\r\n    struct Document {\r\n        string ipfsHash;\r\n        string documentType;  // e.g., \"medical\", \"legal\", \"identity\"\r\n        uint256 timestamp;\r\n        address uploadedBy;\r\n        bool isActive;\r\n    }\r\n\r\n    // Mapping from unique ID to Document\r\n    mapping(bytes32 => Document) private documents;\r\n    \r\n    // Track all document IDs\r\n    bytes32[] private documentIds;\r\n    \r\n    // Owner address for administrative functions\r\n    address public owner;\r\n    \r\n    // Events\r\n    event DocumentUploaded(\r\n        bytes32 indexed docId,\r\n        string ipfsHash,\r\n        string documentType,\r\n        address indexed uploadedBy\r\n    );\r\n    event DocumentUpdated(bytes32 indexed docId, string newIpfsHash);\r\n    event DocumentDeactivated(bytes32 indexed docId);\r\n\r\n    constructor() public {\r\n        owner = msg.sender;\r\n    }\r\n\r\n    modifier onlyOwner() {\r\n        require(msg.sender == owner, \"Only owner can perform this action\");\r\n        _;\r\n    }\r\n\r\n    /**\r\n     * @dev Upload a new document with metadata\r\n     * @param uniqueId Unique identifier for the document\r\n     * @param ipfsHash IPFS hash of the document\r\n     * @param documentType Type/category of the document\r\n     */\r\n    function uploadDocument(\r\n        bytes32 uniqueId,\r\n        string calldata ipfsHash,\r\n        string calldata documentType\r\n    ) external {\r\n        require(bytes(ipfsHash).length > 0, \"IPFS hash cannot be empty\");\r\n        require(documents[uniqueId].timestamp == 0, \"Document ID already exists\");\r\n        \r\n        documents[uniqueId] = Document({\r\n            ipfsHash: ipfsHash,\r\n            documentType: documentType,\r\n            timestamp: now,\r\n            uploadedBy: msg.sender,\r\n            isActive: true\r\n        });\r\n        \r\n        documentIds.push(uniqueId);\r\n        emit DocumentUploaded(uniqueId, ipfsHash, documentType, msg.sender);\r\n    }\r\n\r\n    /**\r\n     * @dev Update an existing document's IPFS hash\r\n     * @param docId Document ID to update\r\n     * @param newIpfsHash New IPFS hash\r\n     */\r\n    function updateDocument(\r\n        bytes32 docId,\r\n        string calldata newIpfsHash\r\n    ) external {\r\n        require(bytes(newIpfsHash).length > 0, \"IPFS hash cannot be empty\");\r\n        require(documents[docId].timestamp != 0, \"Document does not exist\");\r\n        require(\r\n            documents[docId].uploadedBy == msg.sender || msg.sender == owner,\r\n            \"Not authorized to update\"\r\n        );\r\n        \r\n        documents[docId].ipfsHash = newIpfsHash;\r\n        documents[docId].timestamp = now;\r\n        emit DocumentUpdated(docId, newIpfsHash);\r\n    }\r\n\r\n    /**\r\n     * @dev Get document details by ID\r\n     * @param docId Document ID to lookup\r\n     */\r\n    function getDocument(bytes32 docId) external view returns (\r\n        string memory ipfsHash,\r\n        string memory documentType,\r\n        uint256 timestamp,\r\n        address uploadedBy,\r\n        bool isActive\r\n    ) {\r\n        require(documents[docId].timestamp != 0, \"Document does not exist\");\r\n        Document memory doc = documents[docId];\r\n        return (\r\n            doc.ipfsHash,\r\n            doc.documentType,\r\n            doc.timestamp,\r\n            doc.uploadedBy,\r\n            doc.isActive\r\n        );\r\n    }\r\n\r\n    /**\r\n     * @dev Get total document count\r\n     */\r\n    function getDocumentCount() external view returns (uint256) {\r\n        return documentIds.length;\r\n    }\r\n\r\n    /**\r\n     * @dev Deactivate a document (soft delete)\r\n     * @param docId Document ID to deactivate\r\n     */\r\n    function deactivateDocument(bytes32 docId) external {\r\n        require(documents[docId].timestamp != 0, \"Document does not exist\");\r\n        require(\r\n            documents[docId].uploadedBy == msg.sender || msg.sender == owner,\r\n            \"Not authorized\"\r\n        );\r\n        \r\n        documents[docId].isActive = false;\r\n        emit DocumentDeactivated(docId);\r\n    }\r\n\r\n    /**\r\n     * @dev Generate a unique ID from string input\r\n     * @param input String to hash into ID\r\n     */\r\n    function generateId(string calldata input) external pure returns (bytes32) {\r\n        return keccak256(abi.encodePacked(input));\r\n    }\r\n}",
  "sourcePath": "C:\\Users\\Vinay\\OneDrive\\Desktop\\Mito_Truffle\\contracts\\Medical.sol",
  "compiler": {
    "name": "solc",
    "version": "0.5.16+commit.9c3226ce.Emscripten.clang"
  },
  "schemaVersion": "3.4.16",
  "updatedAt": "2025-04-08T19:58:05.673Z",
  "networkType": "ethereum",
  "devdoc": {
    "methods": {
      "deactivateDocument(bytes32)": {
        "details": "Deactivate a document (soft delete)",
        "params": {
          "docId": "Document ID to deactivate"
        }
      },
      "generateId(string)": {
        "details": "Generate a unique ID from string input",
        "params": {
          "input": "String to hash into ID"
        }
      },
      "getDocument(bytes32)": {
        "details": "Get document details by ID",
        "params": {
          "docId": "Document ID to lookup"
        }
      },
      "getDocumentCount()": {
        "details": "Get total document count"
      },
      "updateDocument(bytes32,string)": {
        "details": "Update an existing document's IPFS hash",
        "params": {
          "docId": "Document ID to update",
          "newIpfsHash": "New IPFS hash"
        }
      },
      "uploadDocument(bytes32,string,string)": {
        "details": "Upload a new document with metadata",
        "params": {
          "documentType": "Type/category of the document",
          "ipfsHash": "IPFS hash of the document",
          "uniqueId": "Unique identifier for the document"
        }
      }
    }
  },
  "userdoc": {
    "methods": {}
  }
}